:100000000C9434000C943E000C943E000C943E0082
:100010000C943E000C943E000C943E000C943E0068
:100020000C943E000C943E000C943E000C943E0058
:100030000C943E000C943E000C943E000C943E0048
:100040000C943E000C943E000C943E000C943E0038
:100050000C943E000C943E000C943E000C943E0028
:100060000C943E000C943E0011241FBECFEFD8E04C
:10007000DEBFCDBF0E9440000C9476070C940000B8
:100080000E948A000E949404C12CD12C760167E062
:1000900083E00E949000882331F00E945202C12C1C
:1000A000D12C7601F4CF60E081E00E94900088239B
:1000B00031F00E949102C12CD12C7601E8CF61E091
:1000C00081E00E949000882331F00E94E002C12C60
:1000D000D12C7601DCCF65E082E00E94900088237D
:1000E00031F00E947503C12CD12C7601D0CF61E094
:1000F00083E00E949000882331F00E941004C12CFC
:10010000D12C7601C4CFC701B6010E943C046B011B
:100110007C01BDCF8CE384B917B88DE78AB9089507
:10012000813091F443B121E030E0C90102C0880F71
:10013000991F6A95E2F7242F30E02823392381E0C4
:10014000232B39F580E00895823091F446B121E007
:1001500030E0C90102C0880F991F6A95E2F7242F89
:1001600030E02823392381E0232B99F480E008959F
:1001700049B121E030E0C90102C0880F991F6A959A
:10018000E2F7242F30E02823392381E0232B09F4E0
:1001900080E008958130C9F4442359F025B181E00D
:1001A00090E002C0880F991F6A95E2F7822B85B90B
:1001B000089525B181E090E002C0880F991F6A95EB
:1001C000E2F78095822385B908958230C9F44423EB
:1001D00059F028B181E090E002C0880F991F6A951C
:1001E000E2F7822B88B9089528B181E090E002C03F
:1001F000880F991F6A95E2F78095822388B9089540
:10020000442359F02BB181E090E002C0880F991F80
:100210006A95E2F7822B8BB908952BB181E090E0CB
:1002200002C0880F991F6A95E2F7809582238BB9E7
:10023000089580937C0087EC80937A0080917A0007
:1002400084FFFCCF80E180937A00809178009091C8
:1002500079000895EF92FF921F93CF93DF9300D020
:100260001F92CDB7DEB7FC01562F442311F040E4B6
:1002700001C040E015B1E83E23E0F20708F083C07A
:100280009F01ADECBCEC0E9467079695879596950B
:100290008795969587959C01220F331F880F991F8C
:1002A000880F991F880F991F820F931F9F01281B8A
:1002B000390B2B839F010E9467077C01F694E7941A
:1002C000F694E794F694E79497010E946707969551
:1002D000879596958795969587959C01220F331F54
:1002E000880F991F880F991F880F991F820F931FDE
:1002F0009701281B390B2A839F0136952795369540
:100300002795ABE7B4E10E946707FC01F695E795F6
:100310009F01ADECBCEC0E9467079695879596957A
:100320008795969587959C01220F331F880F991FFB
:10033000880F991F880F991F820F931F9F01281BF9
:10034000390B29831863852F90E0BC016D5F7F4FC7
:1003500021E030E002C0220F331F6A95E2F72095BA
:100360001223E1E0F0E0EC0FFD1FE80FF91F8081A0
:1003700090E0880F991F880F991F8C73842B8BB97D
:1003800015B981E001C080E00F900F900F90DF91D0
:10039000CF911F91FF90EF900895482F62E081E088
:1003A0000E94CA000895CF93C0E009C02AE030E05F
:1003B00040E050E00E944507CA01B901CF5F6115D6
:1003C00071058105910591F78C2F90E0CF910895EB
:1003D0000F931F93CF93DF93883E23E0920720F57E
:1003E000D62F8C01C0E016C0CD1308C0C23031F04A
:1003F00041E06C2FC8010E942A0105C040E06C2F2B
:10040000C8010E942A018FED9EE20197F1F700C01A
:100410000000CF5FC33040F38FE99FE00197F1F711
:1004200000C0000081E001C080E0DF91CF911F910A
:100430000F9108950F931F93CF93DF93182FD62F0B
:10044000042F41E066E083E00E94CA0041E065E0DD
:1004500083E00E94CA0041E064E083E00E94CA0099
:1004600041E063E083E00E94CA0041E062E083E093
:100470000E94CA00C1E0412F4C2763E081E00E9446
:10048000CA004D2F4C2764E081E00E94CA00402F33
:100490004C2765E081E00E94CA00DF91CF911F9157
:1004A0000F9108958F929F92AF92BF92CF92DF9259
:1004B000EF92FF9281E00E94CD0180E00E9419013D
:1004C000BC0180E090E00E94260620E030E040EA97
:1004D0005BE30E94D8064B015C0120E030E048EC71
:1004E00052E40E94D8060E94F7056B017C0180E06F
:1004F00090E00E942606A50194010E9485050E94B5
:10050000F7050E94D30162E0681BC6010E94E80162
:10051000FF90EF90DF90CF90BF90AF909F908F9023
:100520000895CF92DF92EF92FF92CF93DF9380E016
:100530000E94CD0181E00E941901BC0180E090E0A1
:100540000E94260620E030E040EA5BE30E94D806E5
:100550002EE933E845EF50E40E94D8066B017C0198
:1005600020E030E040E251E40E94D8060E94F70506
:10057000EB016336710558F420E030E048EC52E4BA
:10058000C701B6010E94D8060E94F705EB01BE0123
:1005900080E090E00E942606A70196010E94850552
:1005A0000E94F7050E94D30162E0681BCE010E9401
:1005B000E801DF91CF91FF90EF90DF90CF90089509
:1005C0008F929F92AF92BF92CF92DF92EF92FF9263
:1005D000CF9381E00E94CD01C0E0C12CD12C7601E7
:1005E0003BC082E00E941901BC0180E090E00E94C3
:1005F000260620E030E040EA5BE30E94D80620E0D7
:1006000030EC46E853E40E94D8064B015C0182E0DE
:100610000E941901BC0180E090E00E94260620E0C3
:1006200030E040EA5BE30E94D8069B01AC0160E049
:1006300070E080EA90E40E9413059B01AC01C501C3
:10064000B4010E9485059B01AC01C701B6010E945F
:1006500014056B017C01CF5FCA3018F220E030E056
:1006600040E251E4C701B6010E9485054B015C01DF
:100670000E94F7057B018AE0E816F10458F420E0B7
:1006800030E048EC52E4C501B4010E94D8060E9453
:10069000F7057B0184E6E816F10458F420E030E029
:1006A00040E251E4C501B4010E94D8060E94F7055A
:1006B0007B01B70180E090E00E942606A50194012D
:1006C0000E9485050E94F7050E94D30162E0681B25
:1006D000C7010E94E801CF91FF90EF90DF90CF908B
:1006E000BF90AF909F908F9008958F929F92AF92FE
:1006F000BF92CF92DF92EF92FF92CF9381E00E9460
:10070000CD01C0E0C12CD12C76013BC083E00E941A
:100710001901BC0180E090E00E94260620E030E054
:1007200040EA5BE30E94D8062FE135E845ED51E44D
:100730000E94D8064B015C0183E00E941901BC01B4
:1007400080E090E00E94260620E030E040EA5BE393
:100750000E94D8069B01AC0160E070E080EA90E462
:100760000E9413059B01AC01C501B4010E948505DF
:100770009B01AC01C701B6010E9414056B017C010D
:10078000CF5FCA3018F220E030E040E251E4C70108
:10079000B6010E9485054B015C010E94F7056B01C3
:1007A0007C018AE0C816D104E104F10460F420E081
:1007B00030E048EC52E4C501B4010E94D8060E9422
:1007C000F7056B017C0184E6C816D104E104F1044D
:1007D00060F420E030E040E251E4C501B4010E9441
:1007E000D8060E94F7056B017C01C701B6010E9483
:1007F0002606A50194010E9485050E94F7050E9426
:10080000D30162E0681BC6010E94E801CF91FF900E
:10081000EF90DF90CF90BF90AF909F908F90089512
:10082000CF93DF9381E00E94CD0140E060E080E063
:100830000E941A0282E00E9419018097D0F441E0E0
:1008400061E081E00E941A02C0E0D0E00FC0CA302F
:10085000D10530F441E060E083E00E94CA0005C0A9
:1008600040E060E083E00E94CA002196C436D105D2
:1008700070F3DF91CF910895CF92DF92EF92FF92C4
:100880006B017C0180E00E94CD0121EAC21626E8BE
:10089000D20621E0E206F10418F0C12CD12C760139
:1008A000C701B60120E137E240E050E00E94450771
:1008B000603777418105910531F480EAC80E8FE0F9
:1008C000D81EE11CF11CC701B6012AE030E040E06F
:1008D00050E00E944507633071058105910568F479
:1008E000C701B60124E630E040E050E00E94450731
:1008F00060E0C9010E94E8010CC0C701B60124E60E
:1009000030E040E050E00E94450762E0C9010E94EB
:10091000E801C701B6016F5F7F4F8F4F9F4FFF9078
:10092000EF90DF90CF900895CF92DF92EF92FF92F9
:10093000CF9380E00E94CD0184E00E941901BC01A8
:1009400080E090E00E9426066B017C0120E030E40C
:1009500047E254E40E9480058823FCF022C041E075
:1009600060E080E00E941A022FEF81EE94E02150B7
:1009700080409040E1F700C0000040E060E080E08F
:100980000E941A022FEF81EE94E0215080409040A7
:10099000E1F700C00000CF5F01C0C0E0CA30F8F24C
:1009A00037C020E030E84CE354E4C701B6010E94B0
:1009B000800588237CF441E061E080E00E941A0217
:1009C0002FEF87EA91E6215080409040E1F700C088
:1009D00000001EC020E030E447E654E4C701B60141
:1009E0000E94800588237CF441E061E081E00E9460
:1009F0001A022FEF87EA91E6215080409040E1F7FC
:100A000000C0000005C040E060E080E00E941A02E3
:100A100040E060E080E00E941A02CF91FF90EF90EA
:100A2000DF90CF9008955058BB27AA270E942B052E
:100A30000C949E060E94900638F00E94970620F0C3
:100A400039F49F3F19F426F40C948D060EF4E095CA
:100A5000E7FB0C948706E92F0E94AF0658F3BA17FC
:100A6000620773078407950720F079F4A6F50C94C4
:100A7000D1060EF4E0950B2EBA2FA02D0B01B90173
:100A800090010C01CA01A0011124FF27591B99F004
:100A9000593F50F4503E68F11A16F040A22F232F10
:100AA000342F4427585FF3CF469537952795A79560
:100AB000F0405395C9F77EF41F16BA0B620B730B07
:100AC000840BBAF09150A1F0FF0FBB1F661F771F78
:100AD000881FC2F70EC0BA0F621F731F841F48F42D
:100AE000879577956795B795F7959E3F08F0B0CFB6
:100AF0009395880F08F09927EE0F9795879508959D
:100B00000E94630608F481E008950E9499050C9400
:100B10009E060E94970658F00E94900640F029F425
:100B20005F3F29F00C94870651110C94D2060C9467
:100B30008D060E94AF0668F39923B1F3552391F314
:100B4000951B550BBB27AA2762177307840738F03C
:100B50009F5F5F4F220F331F441FAA1FA9F335D099
:100B60000E2E3AF0E0E832D091505040E695001C4D
:100B7000CAF72BD0FE2F29D0660F771F881FBB1F07
:100B8000261737074807AB07B0E809F0BB0B802DE5
:100B9000BF01FF2793585F4F3AF09E3F510578F011
:100BA0000C9487060C94D2065F3FE4F3983ED4F38E
:100BB000869577956795B795F7959F5FC9F7880FE5
:100BC000911D9695879597F90895E1E0660F771F37
:100BD000881FBB1F621773078407BA0720F0621BC8
:100BE000730B840BBA0BEE1F88F7E09508950E94F3
:100BF000B70688F09F5798F0B92F9927B751B0F0F2
:100C0000E1F0660F771F881F991F1AF0BA95C9F790
:100C100014C0B13091F00E94D106B1E008950C9457
:100C2000D106672F782F8827B85F39F0B93FCCF30A
:100C3000869577956795B395D9F73EF4909580950D
:100C4000709561957F4F8F4F9F4F0895E89409C02D
:100C500097FB3EF490958095709561957F4F8F4FEF
:100C60009F4F9923A9F0F92F96E9BB279395F69505
:100C7000879577956795B795F111F8CFFAF4BB0F83
:100C800011F460FF1BC06F5F7F4F8F4F9F4F16C0E7
:100C9000882311F096E911C0772321F09EE8872F71
:100CA000762F05C0662371F096E8862F70E060E02D
:100CB0002AF09A95660F771F881FDAF7880F9695A6
:100CC000879597F90895990F0008550FAA0BE0E84A
:100CD000FEEF16161706E807F907C0F012161306FE
:100CE000E407F50798F0621B730B840B950B39F43E
:100CF0000A2661F0232B242B252B21F408950A26A4
:100D000009F4A140A6958FEF811D811D089597F9E3
:100D10009F6780E870E060E008959FEF80EC0895A1
:100D200000240A94161617061806090608950024CA
:100D30000A9412161306140605060895092E039444
:100D4000000C11F4882352F0BB0F40F4BF2B11F4B8
:100D500060FF04C06F5F7F4F8F4F9F4F089557FD17
:100D60009058440F551F59F05F3F71F04795880F19
:100D700097FB991F61F09F3F79F0879508951216B0
:100D800013061406551FF2CF4695F1DF08C016165C
:100D900017061806991FF1CF86957105610508940D
:100DA0000895E894BB2766277727CB0197F9089524
:100DB0000E94EB060C949E060E94900638F00E945A
:100DC000970620F0952311F00C9487060C948D065D
:100DD00011240C94D2060E94AF0670F3959FC1F3C4
:100DE000950F50E0551F629FF001729FBB27F00DD9
:100DF000B11D639FAA27F00DB11DAA1F649F66272E
:100E0000B00DA11D661F829F2227B00DA11D621F7C
:100E1000739FB00DA11D621F839FA00D611D221F36
:100E2000749F3327A00D611D231F849F600D211D1A
:100E3000822F762F6A2F11249F5750409AF0F1F09D
:100E400088234AF0EE0FFF1FBB1F661F771F881F06
:100E500091505040A9F79E3F510580F00C948706B1
:100E60000C94D2065F3FE4F3983ED4F386957795D1
:100E70006795B795F795E7959F5FC1F7FE2B880FAC
:100E8000911D9695879597F90895A1E21A2EAA1BB0
:100E9000BB1BFD010DC0AA1FBB1FEE1FFF1FA2172A
:100EA000B307E407F50720F0A21BB30BE40BF50B27
:100EB000661F771F881F991F1A9469F760957095B0
:100EC000809590959B01AC01BD01CF010895A29F33
:100ED000B001B39FC001A39F700D811D1124911D0E
:100EE000B29F700D811D1124911D0895F894FFCFBC
:00000001FF
